{
    "contractName": "Inbox",
    "abi": [
        {
            "constant": false,
            "inputs": [
                {
                    "name": "newMessage",
                    "type": "string"
                }
            ],
            "name": "setMessage",
            "outputs": [],
            "payable": false,
            "stateMutability": "nonpayable",
            "type": "function"
        },
        {
            "constant": true,
            "inputs": [],
            "name": "message",
            "outputs": [
                {
                    "name": "",
                    "type": "string"
                }
            ],
            "payable": false,
            "stateMutability": "view",
            "type": "function"
        },
        {
            "inputs": [
                {
                    "name": "initialMessage",
                    "type": "string"
                }
            ],
            "payable": false,
            "stateMutability": "nonpayable",
            "type": "constructor"
        }
    ],
    "bytecode": "6060604052341561000f57600080fd5b60405161038e38038061038e833981016040528080519091019050600081805161003d929160200190610044565b50506100df565b828054600181600116156101000203166002900490600052602060002090601f016020900481019282601f1061008557805160ff19168380011785556100b2565b828001600101855582156100b2579182015b828111156100b2578251825591602001919060010190610097565b506100be9291506100c2565b5090565b6100dc91905b808211156100be57600081556001016100c8565b90565b6102a0806100ee6000396000f300606060405263ffffffff7c0100000000000000000000000000000000000000000000000000000000600035041663368b87728114610047578063e21f37ce1461009a57600080fd5b341561005257600080fd5b61009860046024813581810190830135806020601f8201819004810201604051908101604052818152929190602084018383808284375094965061012495505050505050565b005b34156100a557600080fd5b6100ad61013b565b60405160208082528190810183818151815260200191508051906020019080838360005b838110156100e95780820151838201526020016100d1565b50505050905090810190601f1680156101165780820380516001836020036101000a031916815260200191505b509250505060405180910390f35b60008180516101379291602001906101d9565b5050565b60008054600181600116156101000203166002900480601f0160208091040260200160405190810160405280929190818152602001828054600181600116156101000203166002900480156101d15780601f106101a6576101008083540402835291602001916101d1565b820191906000526020600020905b8154815290600101906020018083116101b457829003601f168201915b505050505081565b828054600181600116156101000203166002900490600052602060002090601f016020900481019282601f1061021a57805160ff1916838001178555610247565b82800160010185558215610247579182015b8281111561024757825182559160200191906001019061022c565b50610253929150610257565b5090565b61027191905b80821115610253576000815560010161025d565b905600a165627a7a7230582006fae7c43a47f9126defb76023c2abf2c889509f1d30ef3ffb4c85acb9d8c0a70029",
    "sourcePath": "/home/siavash/Programming/solidity/boilerplate-inbox/inbox/contracts/Inbox.sol",
    "compiler": {
        "name": "solc",
        "version": "0.4.17+commit.bdeb9e52"
    },
    "functionHashes": {
        "message()": "e21f37ce",
        "setMessage(string)": "368b8772"
    },
    "gasEstimates": {
        "creation": {
            "codeDepositCost": "134400",
            "executionCost": "infinite",
            "totalCost": "infinite"
        },
        "external": {
            "message()": "infinite",
            "setMessage(string)": "infinite"
        }
    }
}